:03000000020F03E9
:0C0F0300787FE4F6D8FD758140020F4AAB
:0F11BD00303132333435363738392E2D4D00006E
:1010BD000337543A00033E533A00043361533A0068
:1010CD0004250000000002310000022F000AC100BB
:1010DD00C101043A000000000421000000000229B3
:0210ED00000001
:0711FE00AE071FEE70FA229C
:101178007C64EF4E60131CEC60087D0A1DED60F680
:0911880080FAEF1F70EC1E80E9F3
:01119100223B
:100BC000E4F509F50AAF8CEFFEAD8A7C00E42DFD5B
:100BD000EC3EFCE4120AA38F288E278D268C25E498
:100BE000F58AF58C7F9A7E997D197C3FAB2EAA2DD4
:100BF000A92CA82B30010F1208F8E4FBFA79A6788B
:100C00004312080780151208F8A804A905AA06AB24
:100C100007E4FFFE7DA67C431208038F0E8E0D8D28
:100C20000C8C0BAF28AE27AD26AC25E4FBFA79C8B7
:100C30007842120A018F288E278D268C25AF0EAEA2
:100C40000DAD0CAC0BE4FBFA79487843120A018F26
:100C50000E8E0D8D0C8C0BAB28AA27A926A8251269
:100C600008F8120ADC8E318F327FC21211CCC3E534
:100C70003294BCE53194025003300046C200C3E513
:100C80000A94B0E50994045011B2957F641211FEE4
:100C9000050AE50A70E8050980E4E4F509F50AC2E9
:100CA000959011C893FF1211D89011C7E493FF12C9
:100CB00011D89011C8E493FF1211D89011C8E40222
:100CC0000D55C3E5329530E531952F5023C3E50A24
:100CD00094B0E50994045011B2957F641211FE0599
:100CE0000AE50A70E8050980E4E4F509F50AC29509
:100CF000C295AE31AF327C007D64120B5D8F3AAE8F
:100D000031AF327C007D64120B5D7E007F0ACFCD57
:100D1000CFCECCCE120B5D8F3BAE31AF327C007D9F
:100D20000A120B5D7E007F0ACFCDCFCECCCE120B48
:100D30005D8D3CE53A9011BD93FF1211D89011C71B
:100D4000E493FF1211D8E53B9011BD93FF1211D827
:100D5000E53C9011BD93FF1211D89011C9E493FFA7
:100D60001211D87FC81211CCE4F509F50A743325A5
:100D70000AF8E6FF1211D8050AE50A70020509C350
:100D80009403E509940040E5AE2FAF307C007D640C
:100D9000120B5D7E007F0ACFCDCFCECCCE120B5D85
:100DA0008F29AE2FAF307C007D0A120B5D7E007F55
:100DB0000ACFCDCFCECCCE120B5D8D2AE4F509F54E
:100DC0000A7429250AF8E69011BD93FF1211D8E59F
:100DD0000A64014509700A7F631211D87F6D1211F0
:100DE000D8050AE50A70020509C39402E5099400D2
:020DF00040CFF2
:010DF20022DE
:03000B00021205D9
:03120500D20032E2
:030003000211A93E
:1011A900C0E0C0D074052530F530E4352FF52FD0D7
:0411B900D0D0E03280
:0300130002111CBB
:10111C00C0E0C0D0D3E5309405E52F9400400C74AA
:10112C00FB2530F53074FF352FF52FD0D0D0E032C1
:0911E400D2A17F0A00DFFDC2A1C7
:0111ED0022DF
:040DF3008E098F0ACC
:100DF700C3E50964809480501CC2017F821211CC24
:100E07007F2D1211D8E50A150A70021509630AFF2A
:100E17006309FF8019D201D3E50A9400E5096480CC
:100E27009480400A7F821211CC7F2B1211D8AC0913
:100E3700AD0AEC120AA38F0F8E0E8D0D8C0CE4FFFA
:100E4700FE7DC87C40AB0FAA0EA90DA80C1208F8AE
:100E5700E4FBFAF9783F120807120ADC8E108F11AB
:100E67007C007D64120B5DAC06AD07E4120AA38F0C
:100E77002E8E2D8D2C8C2BAE10AF117C037DE8129E
:100E87000B5D8F21AE10AF117C037DE8120B5D7EE9
:100E9700007F64CFCDCFCECCCE120B5D8F22AE10AC
:100EA700AF117C007D64120B5D7E007F0ACFCDCF32
:100EB700CECCCE120B5D8F23AE10AF117C007D0A16
:100EC700120B5D8D247F831211CCE4F50BE50BB477
:100ED70002099011C7E493FF1211D87421250BF86A
:100EE700E69011BD93FF1211D8050BE50BC39404CF
:0C0EF70040DB7F201211D87F430211D88D
:100F8F00758901E4F58CF58AD288D28AD2A9D2A8C4
:100F9F00D2AAD2AF12113C7F801211CCE4F50874A3
:100FAF00372508F8E6FF1211D80508E508C39402A3
:100FBF0040ED7FC01211CCE4F508743E2508F8E629
:100FCF00FF1211D80508E508C3940240ED121192E3
:100FDF00120DF31211E430A0FDD28C20A0FDC28CB3
:0C0FEF00120BC07F507E0012117880E1D0
:100FFB00C2A58B807F017E00121024D2A77F057EB5
:10100B0000121024C2A7EBC454F0F5807F017E00C0
:09101B00121024D2A77F057E000B
:10102400D3EF9400EE9400400F7DC77C01DCFEDD1D
:08103400FAEF1F70EB1E80E8CB
:01103C002291
:0C11CC00AB07C2A7C2A6120FFBC2A722ED
:0C11D800AB07C2A7D2A6120FFBC2A722D1
:10113C007F321211CC7F281211CC7F0C1211CC7F74
:0E114C00061211CC7F011211CC7F800211CC53
:10115A00D3EF9400EE940040147D6E7C00ED1D7078
:0D116A00011CED4C70F7EF1F70E61E80E3D6
:011177002255
:1010F000C2B77F467E00EF1FAC0670011E4C70F633
:10110000D2B7E4FEFF30B7110FBF00010ED3EF944A
:0B11100088EE941340EF7F00227F0167
:01111B0022B1
:0C103D001210F07F017E0012115A7FCCCF
:10104900E4FBFAC2B7050BE50B7002050AEF139230
:10105900B7750A00750B06E50B150BAC0A7002157E
:101069000A4C70F3D2B7EFC313FF0BBB00010AEBB5
:0510790064084A70CE7E
:01107E00224F
:10107F007D087C00C2B70FBF0000D2B70FBF0000C2
:10108F000FBF0000A2B7E433C43333335480FBE9FE
:10109F00C3134BF97E007F04EF1FAA0670011E4A8F
:0D10AF0070F6ED1D70011CED4C70C9AF0115
:0110BC002211
:0811EE0012103D7F440210497C
:0811F60012103D7FBE021049FA
:10119200E4FFFE1211EE1211F612107F8F091210E7
:0611A2007FEFFEE509FFEE
:0111A8002224
:10080000020B48E86480F8E933E83360110460F0D3
:10081000ED33EC337009E8FCE9FDEAFEEBFF22045E
:1008200060DED3EB9FEA9EE99DE8C2E78CF0C2F759
:1008300095F0400CE8CCF8E9CDF9EACEFAEBCFFB25
:10084000120B1385D0F05804700320D5B3E8047060
:10085000075002B2D5020B5292D5EC0460F7E4CCFB
:10086000C0E0C398F8603B94186008400DD0E0FBEE
:10087000020B2AE4FBFAC9FC8028E830E406E4C94C
:10088000FBE4CAFCE830E305E4C9CACBFCE8540742
:100890006010F8C3E913F9EA13FAEB13FBEC13FC4D
:1008A000D8F130F52FC3E49CFCEF9BFFEE9AFEEDF0
:1008B00099FDD0E0FBEF4E4D4C701222DB03020B92
:1008C0004FEC2CFCEF33FFEE33FEED33FDED30E764
:1008D000EB020B2AEF2BFFEE3AFEED39FDD0E0FBE9
:1008E00050130BBB0003020B52ED13FDEE13FEEF92
:0808F00013FFEC13FC020B2ABC
:1008F800EC4D6011E8497017ED33EC3304600DE4FA
:10090800FCFFFEFD22E933E8330470F8020B4812BD
:100918000B1358046009E4CC2481500628500902BE
:100928000B52284003020B4FC0E0EB4A7044B980D9
:1009380006D0E0FB020B3EEF4E701CBD8008EBFFBB
:10094800EAFEE9FD80EBE98DF0A4FEE5F00209E19D
:10095800E9CDF9EAFEEBFFEF89F0A4FCE5F0CE89DA
:10096800F0A42EFFE435F0CD89F0A42DFEE435F097
:100978008067EF4E7005BD80D780C3EF8BF0A4ACC5
:10098800F0EE8BF0A42CFCE435F0F8EF8AF0A42C00
:10099800E5F038FCE433CB8DF0A42CFCE5F03BF813
:1009A800EE8AF0A42CFCE5F038F8E433CF89F0A403
:1009B8002CFCE5F038CF3400CE89F0A42FFFE5F009
:1009C8003EFEE433C98DF0A42EFEE5F039CD8AF061
:1009D800A42FFFE5F03EFEE43DFD33D0E0FB5007D9
:1009E8000BBB000F020B52EC2CFCEF33FFEE33FE77
:0609F800ED33FD020B2AA5
:1009FE00020B52EC5D046005E859047003020B48CB
:100A0E00120B13580460F6EC4860F2EC7004FDFE15
:100A1E00FF22C860DB2481C85009C39860025006CB
:100A2E00020B4F9850CAF582E9294B4A7005AB82EA
:100A3E00020B3E75F0007C1A7880C3EF9BEE9AEDA8
:100A4E0099400DC3EF9BFFEE9AFEED99FDE842F043
:100A5E00DC23ACF0D0E0FFD0E0FED0E0FDAB822096
:100A6E00E7101BEB60BAEC2CFCEF33FFEE33FEED20
:100A7E0033FD020B2AE803F830E705C0F075F000ED
:100A8E00EF2FFFEE33FEED33FD40B830E7C280AA04
:100A9E0075F020800E75F010800575F0087D007ED3
:100AAE00007F003392D530D503120BB2EC334010D9
:100ABE00EF33FFEE33FEED33FDEC33FCD5F0ED22DC
:0E0ACE00E5F0247EA2D513CC92E7CDCEFF2218
:100ADC00EDD2E7CD33EC3392D524814006E4FFFE12
:100AEC00FDFC22FCE4CFCECDCC24E0501174FF8071
:100AFC00EDC3CC13CCCD13CDCE13CECF13CF04700E
:070B0C00F030D5DE020BB250
:100B1300E9D2E7C933E833F892D5EDD2E7CD33EC28
:070B230033FC5002B2D522A1
:100B2A00EC30E7100FBF000C0EBE00080DBD00042C
:100B3A000BEB6014A2D5EB13FCED92E7FD2274FFD8
:100B4A00FCFDFEFF22E480F8A2D574FF13FC7D8031
:030B5A00E480EF45
:100F0F00020F8FE493A3F8E493A34003F68001F25A
:100F1F0008DFF48029E493A3F85407240CC8C333E3
:100F2F00C4540F4420C8834004F456800146F6DFB2
:100F3F00E4800B01020408102040809010BDE47E75
:100F4F00019360BCA3FF543F30E509541FFEE493A7
:100F5F00A360010ECF54C025E060A840B8E493A36E
:100F6F00FAE493A3F8E493A3C8C582C8CAC583CA99
:100F7F00F0A3C8C582C8CAC583CADFE9DEE780BE51
:0110EF000000
:100B5D00BC000BBE0029EF8DF084FFADF022E4CC7C
:100B6D00F875F008EF2FFFEE33FEEC33FCEE9DEC45
:100B7D00984005FCEE9DFE0FD5F0E9E4CEFD22ED8B
:100B8D00F8F5F0EE8420D21CFEADF075F008EF2FD5
:100B9D00FFED33FD4007985006D5F0F222C398FDC6
:050BAD000FD5F0EA2263
:0E0BB200C3E49FFFE49EFEE49DFDE49CFC2254
:00000001FF
